:1020000000800020614A00004B4A00004B4A00005B
:1020100000000000000000000000000000000000C0
:102020000000000000000000000000004B4A00001B
:1020300000000000000000004B4A0000B54A00000C
:102040004B4A00004B4A00004B4A00004B4A00003C
:102050004B4A00004B4A00004B4A00004D4A00002A
:102060004B4A0000F52C00004B4A00004B4A000090
:10207000052700004B4A0000052D00004B4A0000D8
:102080004B4A00004B4A00004B4A00004B4A0000FC
:10209000000000004B4A00004B4A00004B4A000081
:1020A0004B4A00004B4A00004B4A00004B4A0000DC
:1020B0000000000010B5064C2378002B07D1054B1B
:1020C000002B02D0044800E000BF0123237010BDA4
:1020D0001001002000000000B4DC000008B5084B2F
:1020E000002B03D00748084900E000BF07480368F9
:1020F000002B03D0064B002B00D0984708BDC046EC
:1021000000000000B4DC0000140100200C010020DD
:1021100000000000014B03607047C046007E0000D5
:1021200070470000014B03607047C046007E00000E
:1021300010B5034B041C036002F012FD201C10BDFF
:10214000007E000010B5034B041C036002F008FD84
:10215000201C10BD007E0000016870B545688468D1
:10216000081C03F0ABFC291C061C281C03F0A6FC71
:10217000011C301C03F018FA211C051C201C03F064
:102180009DFC011C281C03F00FFA05F0E5FB03F091
:102190000BF805F033FC70BD70B5041C0E1C08680C
:1021A000111C151C03F064FB20607068291C03F0EF
:1021B0005FFB6060B068291C03F05AFBA06070BD33
:1021C00010B58AB0041C01A9054800F077FB069BF6
:1021D0002360079B6360089BA3600AB010BDC046E4
:1021E0002C01002070B5061C0D1C00246300F05863
:1021F000044903F063FC03F08BFD28530234142CD4
:10220000F4D170BD00007A44F0B500269BB005966D
:1022100006960796089609960A96002502A8FFF7E3
:10222000CFFF02A8FFF798FF02A9021C08A8FFF73A
:10223000B3FF002D01D1109609E005A8FFF78CFF30
:1022400008A8FFF789FFAB0010AA0021D1502A4C43
:102250002A49201C00F0CAFD10AFAB00D85905F088
:102260007BFB0B1C0221021C0091201C00F0EFFEE6
:10227000089B32200593099B013506930A9B07931F
:1022800002F02CFC0A2DC9D10BAD381C291CFFF71C
:10229000A9FF0026B85905F05FFB0B1C0221021CA8
:1022A0000091201C043600F0CBFE282EF2D1201C19
:1022B000202100F0B7FD0026A95F201C0A2202366B
:1022C00000F0FFFD142EF7D12021201C00F0AAFD04
:1022D0008021281C490000F067FC0026A95F201C13
:1022E0000A22023600F0EDFD142EF7D1201C202129
:1022F00000F098FD1BB0F0BD00280020187E000003
:1023000010B5054C0549201C00F032FA201C044988
:10231000044A02F00FFF10BD2C01002031D4000050
:10232000252100000000002010B50C4C9621201C37
:10233000890102F045F90A49201C00F069FD201CC2
:10234000084900F065FD084800F052FA002804D161
:10235000201C064900F05CFDFEE710BD7023002044
:102360001F7E0000EADA00002C010020327E00000F
:1023700000207047F8B5051C0F1C161C0024B44241
:1023800008D02B68395D1B68281C9847002801D0AD
:102390000134F4E7201CF8BD7047031CFC33196AB4
:1023A000DA69914203D01B6AC018007E01E0012067
:1023B00040427047031CFC33D8691B6AC01A01D520
:1023C0000130FF3070470000F7B50193FA239B00FE
:1023D0008360134B8026002576000833041C0F1CF5
:1023E0004560291C00920360321C183005F009FC7E
:1023F000231C9022FC335200DD61A0181D62321CA8
:10240000291C05F0FEFB87229200A3185D60019A4B
:102410009D60009B2761A575201C23756275FEBD1C
:10242000687E000070B50D49041C006900F0F8FFDB
:10243000206900F0B0FE1826207D331C4343084D70
:102440000821EB18595602F073FD607D08214643C0
:10245000AD19695602F06CFD70BDC046A086010042
:1024600098D600008A2387229B009200C1548318CB
:1024700000225A609A60012383757047031CFC3365
:102480005A6810B501329C68D2B2A24202D05C6890
:1024900001555A6010BDF7B501930023041C151CAB
:1024A000181C9A4231D0221CFC32D361206913627D
:1024B000012200F0ADFE002825D0206900F017FFB2
:1024C000271C1837011C381CFFF7D8FF012620698C
:1024D000AE420ED000F07CFE0221206900F082FEA8
:1024E000206900F004FF011C381CFFF7C7FF01360C
:1024F000EDE700F064FE019B002B05D0206903216D
:1025000000F070FE00E0051CE8B2FEBD08B5012336
:10251000FFF7C1FF08BD10B5827D00239A420DD0A0
:102520008724A4000219546892680134E4B29442EA
:1025300004D02130FF30FFF7A1FF0123181C10BD8C
:10254000031CFC3399685A68914206D09A68805CF3
:102550009A680132D2B29A6001E00120404270478D
:1025600070B500228A2382759B00041C0E1CC15C7E
:10257000006900F04DFE002805D12069032100F01C
:1025800031FE022523E090235B00E01887239B00A7
:10259000E21851689368CB1A01D50133FF33002B41
:1025A0000ED02569FFF7CCFFC1B2281C00F05FFEFA
:1025B0000028E8D12069032100F014FE032506E07D
:1025C0001D1C002E03D02069032100F00BFE281CE7
:1025D00070BD08B50121FFF7C3FF08BD08B518306D
:1025E000FFF7AEFF08BD38B5041C006900F05DFEC2
:1025F000002800D184E0206900F065FE00280ED19B
:10260000206900F06AFE00281FD0206900F060FEFB
:1026100000281AD0206900F065FE002815D1206935
:1026200000F0D6FD2069032100F0DCFD8C239B0027
:10263000E558002D04D02368201C1B699847A84743
:10264000FC340023E36123625AE0206900F045FE78
:10265000031C2069002B19D000F0BAFD206903216A
:1026600000F0C0FD206900F03DFE002848D0872220
:102670009200A31800225A609A600123A3758B234D
:102680009B00E35893423BD0984739E000F016FE98
:10269000002835D0206900F025FE002816D08723B9
:1026A0009B00E21851689368CB1A01D50133FF33C0
:1026B000FF21002B05D090225200A018FFF740FF09
:1026C000C1B2206900F0E4FDA07519E0231CFC33C1
:1026D000DA691B6A0132D2B220699A4202D100F053
:1026E0006EFD09E000F003FE011C201C1830FFF70E
:1026F000C5FE206900F06CFD2069032100F072FD29
:1027000038BD000008B50248FFF76DFF08BDC046A0
:102710003C01002008B50348034914221523FFF7A4
:1027200053FE08BD3C010020E827002038B52822D0
:102730000C1C051C081C002105F063FA201C08492C
:102740000B2205F01CFB0023E372ED68012263629B
:1027500000232561E2606261A361E361236238BD09
:10276000907E000008B50368C9B21B68984708BD91
:10277000044BC160083303600023C380038143819D
:102780007047C046987E000070B5094C161C201C8E
:102790001D1CFFF767FE311C201CFFF7BCFE291C27
:1027A000201CFFF7B8FE201CFFF713FF70BDC046CA
:1027B0003C01002070B50D4C161C201C0D1CFFF7B1
:1027C00051FE311C201CFFF7A6FE201CFFF701FF65
:1027D000291C0122201CFFF799FE201CFFF7FEFE9A
:1027E000051C201CFFF7F5FEE8B270BD3C0100207F
:1027F00010B5041C0948FFF715FE5723201C1921AA
:102800002022FFF7C1FF201C19212022FFF7D2FF51
:10281000573843425841C0B210BDC0463C01002069
:10282000F0B5254C85B01921051C201CFFF71AFEB8
:10283000A821201CFFF796FF201CFFF7CAFE201CD2
:1028400019210622FFF762FE201CFFF7B3FD0528C1
:10285000FADD201CFFF7C2FE061C201CFFF7BEFE9F
:10286000071C201CFFF7BAFE0190201CFFF7B6FEE4
:102870000290201CFFF7B2FE0390201CFFF7AEFE73
:10288000029AFF23019C1A40E1B212020A43039C00
:1028900012B21F40121103403F022A81F6B2E2B287
:1028A0001B023E43134336B21BB236111B11EE809E
:1028B0006B8105B0F0BDC0463C01002070B52426F8
:1028C000321C0C1C051C081C002105F09AF9281C60
:1028D000FFF7A6FFEB68266001266360A66002F0A2
:1028E000F7F820610623E85E03F032FA0F4903F09F
:1028F000E5F80F4903F0E2F860610823E85E03F0B1
:1029000027FA0A4903F0DAF8094903F0D7F8A06179
:102910000A23E85E03F01CFA044903F0CFF80449E7
:1029200003F0CCF8E061301C70BDC0466F12833AF2
:102930000AE81C4130B5013A074B92B29A4209D0DD
:102940000024035F00254C5F02316343DB130380E7
:102950000230F0E730BDC046FFFF0000F0B5490887
:1029600085B08C0052000093A4464B1C00240392B7
:102970000293021D251C8E1EB54225D8A54214D2F5
:10298000171F3E680196A600861933683B60019FB9
:1029900063463760029FD358E619B6008619376838
:1029A00001936346D750019B33606418A400041957
:1029B00016682768009B17602660039E1C889B1979
:1029C000009302350832D6E705B0F0BDF0B591B0FE
:1029D0000D90481006910C92079382000023890005
:1029E000039205900B919C461A1C059DAA4247DA5A
:1029F00064460C9D0C9FA300ED5AFB185B8807985A
:102A00000D9C0A93930009958444E3180492049959
:102A1000069CA14232D2039F00255E5FD85FB610AC
:102A200080108119039C491019801C1902215D5ED8
:102A30000F940227E45FAD10A4102F197F105F8060
:102A400009990A9F301A2D1B0EB23CB22DB2271CD9
:102A5000311C6F434143754360433F140914791897
:102A60000014039F2D140F9C2D1AD9536580069FC7
:102A7000049D0B98ED1904951B18C8E70132B4E7C3
:102A8000079F06987B009BB2400807930A90059C1D
:102A9000059D0A9FA4006D1008940495022F5ADD2D
:102AA0000499002289000B91039204998A4249DA21
:102AB000039C0C9D0C9FA3000798ED5AFB185B88A4
:102AC000241803940D9C0F9393000E95E31809921C
:102AD000099F0698874233D20B9D1E88585B34B2FB
:102AE00001B261180B9F49101980DF197C885D883D
:102AF00021B28C4601972FB267447F100F995F80F7
:102B00000E9F2D1B0CB2301A2DB23EB2271C6F4304
:102B100000B23914371C4743754360433F14BC4629
:102B20008C4400140B992D142D1A674601985F529E
:102B3000059C09994580089D091909915B19C7E70A
:102B40000132B2E7079A059153009BB207930A9BA3
:102B50005B100A939BE7A8000022049DAA4221DA99
:102B60000D9F9300FB18111C069CA14218D21D5A00
:102B70001C885E88A4462C1C64441C801C18079585
:102B800065880994AC195C80079C67463F1B099CCB
:102B9000751B1F526580089F059DDB194919E3E7E6
:102BA0000132DAE711B0F0BDF8B5051C0C1E802C1F
:102BB0003CD080290DD8202946D040293DD010296D
:102BC00070D13A49221C8026FFF7B4FE7600384FB8
:102BD00040E080239B00994221D00AD880235B00EB
:102BE00099425FD13349221CFFF7A4FE1026324FD1
:102BF00030E08023DB0099420AD080231B019942F8
:102C000050D12E49221CFFF795FE02262C4F21E0C1
:102C10002C49221CFFF78EFE04262B4F1AE02B496D
:102C2000221CFFF787FE0826294F13E02949221CA2
:102C3000FFF780FE2026284F0CE02849221CFFF7D2
:102C400079FE261C264F05E02649221CFFF772FE5E
:102C5000254F80260023A34209DA5A00A95A2348A7
:102C60009A0081528218002151800133F3E71F48F6
:102C7000211C1F4A331CFFF7A9FE3B1C1B48211CCB
:102C8000321CFFF76BFE0023A34209DA17489900B4
:102C9000415E5A00C81709184140A9520133F3E7B1
:102CA000002001E001204042F8BDC04638D60000B7
:102CB000B680000038D40000D67E000038C4000082
:102CC000BA7E0000B8B60000BE7E0000B8BF0000AB
:102CD000C67E0000B8BE0000F67E0000B8C300004B
:102CE000367F000058D60000B67F00007003002039
:102CF000B886000008B5024801F0C2FD08BDC04614
:102D0000AC25002008B5024801F0BAFD08BDC04658
:102D100070230020F7B5164F1649381C00F0A5F9AE
:102D20001549164800F0A1F91549164800F09DF91B
:102D30001549164800F099F91549164800F095F91B
:102D4000154D03260124281C144900F08EF9391C66
:102D50000096231C01940022114801F0A9FC009662
:102D6000291C01941F221E230E4801F0A1FCF7BD6F
:102D7000EC27002000080042000C0042F027002051
:102D800000100042F427002000140042E827002031
:102D900000180042F8270020FC270020001C0042F9
:102DA000AC25002070230020F7B58A18061C0D1CE6
:102DB00001920C1C019B671B9C4207D03368217851
:102DC0001B68301C984701340028F3D1381CFEBD25
:102DD00038B5051C0C1C081E07D004F0C9FF2B6871
:102DE000021C5B68281C211C984738BD08B5FFF7FA
:102DF000EFFF08BD08B503681B68984708BD0000D1
:102E000008B50249FFF7E4FF08BDC046E8DA000054
:102E100038B5041CFFF7DCFF051C201CFFF7F0FF92
:102E2000281838BD38B5041CFFF7E4FF051C201C2A
:102E3000FFF7E6FF401938BDF0B58DB0161C0BAB9F
:102E4000002201900C1C1A70012E00D80A266D4633
:102E50002B35201C311C02F03DFB201CCFB2311C55
:102E600002F0F4FA291C041C092F01D8303700E0C5
:102E70003737FFB22F70013D002CEAD10198FFF7E0
:102E8000A7FF0DB0F0BDF8B5041C0D1C161E04D133
:102E90000368C9B21B68984712E00A2A0DD10029BD
:102EA0000ADA2D21FFF7A6FF6942071C321C201CFD
:102EB000FFF7C2FFC01903E000E0D2B2FFF7BCFF8A
:102EC000F8BD08B5FFF7DFFF08BD000000000000F7
:102ED000F7B51C1C08AB1B78071C211C101C151C0B
:102EE000009302F02FF9002802D1381C504907E066
:102EF000281C211C02F026F9012804D14D49381C58
:102F0000FFF766FF7CE0281C211C404B3E4A02F084
:102F100017FB002802D0381C4749F1E7281C211C68
:102F20003B4A3C4B02F0F8FA0028F4D1281C211C43
:102F3000394A3A4B02F0F0FA002808D02D21381C0B
:102F4000FFF758FF802109060190641800E0019006
:102F50000026334A334B00998E420AD0101C191CAC
:102F6000314A324B03F06CFA0136021C0B1CF6B2EC
:102F7000F1E7281C211C02F047FF0D1C041C02F085
:102F8000F3FA061C04F0B4FC0B1C021C291C201CC8
:102F900004F050F90A22041C0D1C381C311CFFF7E8
:102FA0004BFF019B0099C618002904D0381C2E2124
:102FB000FFF720FF3618009B002B20D01A4A1B4B2E
:102FC000201C291C03F0A6FE0D1C041C02F0CCFAE8
:102FD00001900A220199381CFFF72EFF361801983C
:102FE00004F086FC0B1C021C291C201C04F022F996
:102FF000009B041C013BDBB20D1C0093DBE7301C83
:10300000FEBDC046C046C046000000E0FFFFEF41E5
:10301000000000E0FFFFEFC1000000000000000022
:10302000000000000000E03F00000000000024401D
:10303000EBDA0000EFDA0000F3DA0000C046C04629
:1030400013B5049CE1B20091FFF742FF16BD37B5FE
:10305000041C0698C1B20091201CFFF739FF051C23
:10306000201CFFF7CDFE28183EBD01607047F7B564
:1030700008AC267804689D1E27686C1EA541ECB23A
:10308000920705683A4327063A432A6002680725F3
:1030900029405068B501002C00D05C03294301434E
:1030A0000C435460F7BD30B50368C0251C68AD0300
:1030B00012052A402243C024A402090421401143DE
:1030C000196003685A6814435C6030BD03680121CD
:1030D0001A680A431A600268116801231942FBD179
:1030E000D1691942F8D17047036802211A680A436E
:1030F0001A600268D3699907FCD4704703681A7E86
:10310000D10702D41A7E9107FCD5704703680022CC
:103110005A8370470368187E4007C00F70470368E2
:10312000187EC009704703688022197E52420A4304
:103130001A7670470368588B8007C00F7047036882
:1031400002215A8B0A435A8370470368187E012371
:10315000184070470368188DC0B2704703681A7E24
:1031600001200242FBD019857047036801229A753D
:103170007047036801221A757047036801211A68B5
:103180000A431A600268116801231942FBD1D16910
:103190001942F8D17047036802211A680A431A607D
:1031A0000368DA699107FCD45A8B30218A431021D5
:1031B0000A435A830268D3695907FCD470470368ED
:1031C000802219685968D2020A435A607047000089
:1031D0000368034A196859680A405A607047C04634
:1031E000FFFFFBFF30B5036803241D680C40074A4E
:1031F000596824040A40ED0622436D0F5A60052DDC
:1032000003D10268D3695907FCD430BDFFFFFCFF2E
:1032100049001143036830B5CDB2598B0324090925
:103220002140012904D0598B09090C40022CF4D10A
:10323000596AC90AC902294359620368002A03D19D
:103240001A7ED107FCD50DE0187E012240081040FF
:1032500008D1197E1142F7D05968C02292020A4360
:103260005A6003E05B8B01209B08984330BD0368E4
:10327000283319700268107E0123184003D1518B46
:103280001942F8D003E0528B181C92089043704703
:10329000036828331970036800201A7E510703D58C
:1032A0005B8B01209B089843704703681868C00631
:1032B000400F043843425841C0B270470368187E3B
:1032C0004007C00F70470368187E012318407047FD
:1032D0000368588BC006C00F70470368187E8007CC
:1032E000C00F70470368588B0007C00F7047036812
:1032F0001A68D206520F052A02D11A7E9107FCD510
:1033000028331878C0B270470368224A30B5934218
:1033100011D0214A934211D0204A934211D0204A21
:10332000934211D01F4A934211D01F4A934230D189
:103330000E2319220DE0092314220AE00A23152284
:1033400007E00B23162204E00C23172201E00D23D3
:103350001822DCB2154901209B08A0409B000860A0
:103360005B180320C021890004405D58E000FF2461
:103370008440A5432C1CC0258540281C2043585060
:103380008023DB011A430A4B5A805A7852B2002A32
:10339000FBDB30BD00080042000C00420010004280
:1033A0000014004200180042001C004200E100E04E
:1033B000000C0040F8B5041C151C0E1C1F1CFFF768
:1033C000A3FF201CFFF782FEB1001C220A40690700
:1033D0002368090C0A431A60226884239375012E1E
:1033E0001AD10821012D00D110210C4B7943186806
:1033F000C00002F02BF8236807219A890140D2040B
:103400004903D20C0A439A8123680004C20C9889AC
:10341000400B400310439881F8BDC0468000002057
:1034200070B5041C0E1CFFF76FFF201CFFF7A5FEF4
:10343000236814221A600D4B71001D682468281C33
:1034400002F004F80A49061C281C01F0FFFF7D2346
:10345000FA215843C90001F0F9FF301AE668FF234A
:10346000053818409E430643E66070BD800000208A
:1034700040420F003F20704713B502686B46D97178
:1034800007335468191C0122A04716BD08B500690E
:10349000022100F059FC08BD08B50069032100F0C5
:1034A00069FC08BD38B50D1C041C131C0069032100
:1034B0002A1C00F05BFD002801D10123636038BDA8
:1034C00010B5054C23685A1C04D103685B69984702
:1034D0002060031C181C10BD54000020074A08B5CA
:1034E0001368591C04D0012149421160181C03E0E3
:1034F0000069022100F02CFD08BDC04654000020E8
:1035000008B503780349023303704222024800F0F1
:10351000E3FD08BD10000020CB2C002010B5017881
:10352000031C42780020A12908D1212A2FD1184854
:103530001849072200F0D0FD012028E0212926D1DA
:10354000202A05D113490722114800F059FC04E054
:10355000222A10D19A780F4BDA710E4B96221968F5
:10356000D200914210D1DC7901231C400CD1FA2009
:1035700001F040FD0AE0232A09D1DA789B78120293
:103580001A43054B1A6002E001F03AFD002010BD1D
:10359000CB2C0020040000200C000020064BFA2158
:1035A00089009960054900220831196004495A6070
:1035B00019611A767047C04600280020F8DA00002A
:1035C000CB2C002010B507230F220240141C000949
:1035D0003034092A00DD0734CC54013BF4D210BD4D
:1035E00010B5054B041C0360806904F0F7FAA06A6B
:1035F00004F0F4FA201C10BD28DB000010B5041CF8
:10360000FFF7EEFF201C01F0ABFA201C10BD0000FC
:1036100070B582291ED1C2B22A495301CB189D69C7
:10362000294C80012C40C025AD052C439C61274CC2
:103630000832201858610B68520199180C798020C3
:10364000404220430871D15C702081433020014307
:10365000D15435E0002933D1C2B21A495301CB18F5
:103660009E68194DC0242E40A40526439E60184E26
:10367000800109683018083258605201505C0726F2
:10368000B0430126304350549E6935402C439C6121
:103690000E4C5C61505C7024A043102420435054B5
:1036A0009C680C488A18204080246403204398605A
:1036B00098684021800B8003986053790B435371C5
:1036C00070BDC046D42C0020FFFFFF8F28290020AA
:1036D000EC2A0020FF3F00F038B5041C08CC012183
:1036E0001A78051C0A431A708022201C00215200FF
:1036F00004F087FA2B689A78D107FCD45C6238BD55
:10370000134BF0B51B6899035A029B01C90ED20EE8
:103710005B0F1F2900D105211F2A00D11D22072B75
:1037200000D1032304688E01278D0A491F253940E3
:103730003143218501682A400C8DAC4322430A8520
:1037400002681903108D044B03400B431385F0BD31
:10375000246080003FF8FFFFFF8FFFFFEFF310832F
:1037600003600123436072B670470368002B02D1E7
:1037700062B6BFF36F8F704737B50569041C6846A2
:10378000002D12D1FFF7EAFF019B013B03D3621D1D
:10379000D57FEDB2F9E768460193FFF7E6FF002019
:1037A000854217D0206AE36913E0FFF7D7FF019B3A
:1037B0000025013B04D3221C34321578EDB2F8E722
:1037C00068460193FFF7D1FF0020854202D0206BAD
:1037D000E36AC01A3EBD0000436810B51A68037A58
:1037E00001215B01D318FF339A7A0A439A72037A54
:1037F00042685B01D318C2689C6891040B4A0909AE
:1038000022400A439A60037A42685B01D3189A689F
:103810004021920B92039A6043681A68037A083336
:103820005B01D3181A790A431A7110BDFF3F00F0EB
:10383000F7B50569041C0E1C171C6846002D1FD126
:10384000FFF78CFF019B013B5A1C06D0621DD17F04
:103850005A1E00293AD0131CF6E768460193FFF779
:1038600084FF0025E369BD4235D0226A934232D2FB
:103870005A1CE261A269D3181B7873550135F1E730
:10388000FFF76CFF019B013B5A1C08D0221C34320D
:1038900015785A1EEDB2002D18D0131CF4E76846B7
:1038A0000193FFF762FF0025E36ABD4226D0226B39
:1038B000934241D322E0621D0021D1773032167845
:1038C000581E8E4214D1031C5A1CF4D16846019331
:1038D000FFF74BFF38E0226A934235D10023E361C2
:1038E000012323616846FFF739FF019B013BEBE7AA
:1038F0001170201C0193FFF76FFFF6E7226B9342D4
:1039000022D10023E36223616846FFF727FF019B72
:10391000013B5A1CDAD0221C3432002111700132D2
:103920001678581E8E4201D1031CF2E71170201C3C
:103930000193FFF751FFEAE75A1CE262A26AD3182B
:103940001B7873550135AFE7281CFEBD37B54368BA
:10395000027A1B68083252019A18041CD07901239C
:10396000FF21184255D0D371A06865696268014093
:10397000002D1FD14901521891688904890C2162D8
:10398000216A002942D06361A36A68465360FFF749
:10399000E5FE019B013B5D1C34D0621D0120D07708
:1039A0002F3211785D1EC9B21218002915D111707D
:1039B0002B1CF0E74B01D3189A689204920C2263F7
:1039C000226B002A22D000226261A26968465A60F6
:1039D000FFF7C4FE019B013B12E0019310706846A3
:1039E000FFF7C3FE15E0221C343201201070621D67
:1039F000D17F5D1EC9B230320029EED111702B1C6F
:103A00005D1CF0D168460193FFF7AFFE201CFFF765
:103A1000E3FE37BD37B500236C46E3710734201C45
:103A20000D1CFFF76DFD2B681818286001F070FB66
:103A3000211C01F027FB2B681818286020783EBD58
:103A400003290BD10D4BB2221B685200985C8021D8
:103A5000494201439954022168220CE001290CD10A
:103A6000064B92221B685200985C80214942014318
:103A7000995402212822FF3299547047D42C0020F7
:103A800038B5304B00240121051C1A201C7001F0B0
:103A9000C5F91A20012101F01BFA2B4B1920012135
:103AA0001C7001F0BBF91920012101F011FA274B1C
:103AB0002021DA6901200A43DA61254B06241A78AD
:103AC00002431A70234B0F22197891431970197809
:103AD0002143197020490C782043087019780A4056
:103AE0001A701A7860210A431A701C4B1C4A5A80BB
:103AF0005A78D209FCD11B4800F0E4FF1A4C201C74
:103B0000FFF7EAFD201CFFF7FBFD23687F221978F1
:103B10000A401A701A7804210A431A701A890C2173
:103B20008A431A81C121114A890050580002000AB3
:103B30005050802111601A7802210A431A70012323
:103B40002B7038BDE82A0020D02C00200004004053
:103B5000584400413C44004159440041000C00409D
:103B6000064000009D450000D42C002000E100E04C
:103B70000078002810D0094B01211B681A898A435C
:103B80001A811A8B08210A431A831A8B04210A43CB
:103B90001A83034B00221A607047C046D42C0020C1
:103BA000D82D00200F4B9A69920B92039A611B68E3
:103BB0000222FF331A7298798022524202439A718C
:103BC0001A7A9007FCD5084B081C997A7F2210407E
:103BD000914301439972997A802252420A439A7220
:103BE0007047C046D42C00200050004110B50B791E
:103BF0000C1C002B0BD1081CFFF790FC002804D1F3
:103C0000094B9A69920B92039A6101200BE001F033
:103C10007FFA211C01F06AFA0028F6D1024B9A695A
:103C2000920B92039A6110BDD42C0020F7B50D1CA5
:103C3000832A18D1CAB236495301CB189C6935483A
:103C4000AD012040C024A4052043986132480832C9
:103C500045195D610B685201D15C702081434020A1
:103C60000143D15453E0022A4DD12C4B8900C8584E
:103C70000191002802D003681B699847382000F0A2
:103C80006BFF274B224F8026036076000023421DE6
:103C9000036203614361C36147608560C660D37797
:103CA0002F32041CC36203631370301C537003F083
:103CB0008BFFA061301C03F087FFFF231D406D01C7
:103CC000A0627F19B968134A07250A40C0218905F7
:103CD0000A43BA60A1686268194012680831490154
:103CE000885CA843032528438854A2686168134070
:103CF0005B01A269CB185A60201CFFF76DFD074BD2
:103D000001995C5003E0081C111CFFF781FCF7BD12
:103D1000D42C0020FFFFFF8F28290020AC2C00208E
:103D200028DB000038B5051C0124064BA200D25840
:103D3000002A06D0211C281C0134FFF777FFE4B2CB
:103D4000F3E738BD5800002008B5084B8A00D0586A
:103D5000002803D003689B68984706E0C9B2044B6B
:103D60004901591888688004800C08BDAC2C0020DB
:103D7000D42C002010B50C1CFFF7E6FF00280CD057
:103D8000064BE1B21B680831490159184A79802372
:103D90005B4213434B710223CB7110BDD42C002026
:103DA00070B5CAB2134B144854018901591803194C
:103DB00059609D681149083229408025AD02294388
:103DC000996099684026890B8903996003685101BD
:103DD00059180D7935430D715101591889794D06DE
:103DE000FAD551015918C979CD07FAD50419A06837
:103DF000C0B270BDEC2A0020D42C0020FF3F00F0A0
:103E000038B50C4B141C1B680D1CFF335A7940212C
:103E10000A435A710021FFF7C3FFA04200D9201CBA
:103E20000023A34204D0044A9A5CEA540133F8E721
:103E300038BDC046D42C0020EC2A002010B5C9B2F1
:103E40000C48490143189A689204920C3F2A08D9F9
:103E5000141C9A68403CA404920BA40C92032243C5
:103E600002E09A68920B92039A6041188868C0B287
:103E700010BDC046D42C0020F0B51C1C2F4B85B0C3
:103E80001B68061C0D1C0292002B51D02C4F397858
:103E9000C9B2002902D1192001F01AF864233B703D
:103EA000284BAA00D058002805D0036802995B6807
:103EB000221C984740E0301C291CFFF745FFA04218
:103EC00004D2301C291CFFF73FFF041C291C301CA6
:103ED000FFF7B4FF1C4FE9B24A0101913968039220
:103EE0008B18FF335A7A01210A4318495A72AB01E1
:103EF000C9180298221C03F07BFE002C1BD0301C3A
:103F0000291CFFF721FF002815D1019B3A680833CF
:103F10005B01D31819794020014319710121D9712E
:103F200003995318FF339A7A01210A439A7202E0E7
:103F30000120404200E0201C05B0F0BDD82D00203B
:103F4000D02C0020AC2C0020D42C0020EC2A002007
:103F500013B56C460734221C0123FFF78DFF01289F
:103F600001D1207801E00120404216BDF0B51C1CB3
:103F70003F4B85B01B680E1C0292002B6AD0802339
:103F8000DB019C4266D83B4D2978C9B2002902D199
:103F90001A2000F09DFF642300222B700092002C59
:103FA00056D0354DF7B22B6801933B1C0833019A6C
:103FB0005B01D3189B79DB091AD0304B3049186864
:103FC00001F044FA2F4B1721584301F03FFA3B1CF4
:103FD0000833019A5B01D318DB799A0708D42A4B7E
:103FE0009A5D002A38D1421E002835D0101CEEE719
:103FF000254B00229A55251E3F2D00D93F25234AE7
:10400000B301D318181C02992A1C039303F0F0FD86
:10401000194A7B01D318039AA9045A619A69890C39
:10402000920B92030A439A613B1C019A08335B018D
:10403000D3180222DA715979802252420A435A7106
:10404000009B029A5B1952190093641B0292A6E727
:1040500000980BE0012008E001229A557B01ED1841
:10406000AB69101C9B0B9B03AB61404205B0F0BDDC
:10407000D82D0020E82A0020D42C00208000002029
:1040800040420F0070110100202900202829002043
:1040900070B50E4D1C1C8B01ED18281C0E1C111C3C
:1040A000221C03F0A5FDF6B20949760189194D617C
:1040B0008A69084B201C13408B618B69A2049B0BFF
:1040C000920C9B0313438B6170BDC04628290020CE
:1040D000D42C0020FF3F00F0F7B5114B01901B7866
:1040E0000F1C141C002B19D10E4B1E78002E01D171
:1040F000151C08E00C4D0D482E888019361903F068
:1041000077FD2E800AE0002D08D0BA192B1C0198EB
:104110000021FFF7BDFF36182D1AF4E7201CFEBD65
:10412000CA2C0020C82C00201E2900201D28002099
:10413000F8B50E1C00AF151E012D28D9D31DDB08C4
:10414000DB006A46D21A9546081C03F011FE0130C6
:104150006C4640000323207063700222AA420ED2F4
:104160003378002B0BD0511CC9B20136A354A9429D
:1041700004D0002302326354D2B2EFE72A1C054870
:10418000211CFFF7A9FF431E9841C0B200E00020A8
:10419000BD46F8BDCB2C002008B5044B00221A7098
:1041A000034B04491A88FFF797FF08BDC82C00206D
:1041B0001E2900201D280020F0B5204A87B00123C9
:1041C0000026009102A91370051C0296FFF722FC3D
:1041D00003AC092701903A1C201C311C03F011FD8F
:1041E00002236370A023E371FA232372029B01224E
:1041F000DB196380019B62712371104A009B277059
:104200001670BB4205D1281C211C1A1CFFF764FF45
:1042100011E00B4B01221A700A4B211C3A1C281C7E
:104220001E800296FFF758FF281C02A9FFF7F2FB39
:10423000281CFFF7B1FF012007B0F0BDCA2C0020F9
:10424000C82C00201E29002070B5CE7892B0051C25
:104250000C1C022E08D1C9882D48FFF7ADFF031CA6
:10426000581E8341D8B251E000F052FF211C00F0EB
:104270001EFF002803D0C3171B1AD80F46E0012EDB
:1042800004D1E2882349112A3BD837E0032E3DD1DF
:10429000A278002A05D12049E2880B7893422DD8D4
:1042A0002FE0022A03D1A279281C1C4904E0012A2C
:1042B00005D1A2791A49281CFFF73AFF26E0032A04
:1042C00024D1184B01A91868FFF77CF9164B03A9F4
:1042D0001868FFF777F9154B05A91868FFF772F909
:1042E000134B07A91868FFF76DF900F011FF09A932
:1042F00000F0EDFEA279281C01A9DDE7D2B2002A68
:1043000000D10A78281CFFF7E7FE012012B070BD2B
:10431000CB2C002050DB00004CDB000062DB0000F7
:1043200040DB00000CA0800040A0800044A0800082
:1043300048A0800073B5051C48780C1C0B2878D861
:1043400001F07AF8081C7728773E4306474B686FE0
:1043500000206FE0097801AA002903D11170517083
:10436000281C09E0002313705370334B1B78012B7A
:1043700000D11370281C002102234FE08A7800230B
:10438000012A04D101AA137053702C4BEEE72A4A7C
:10439000137049E08E78012E07D1284B01AA002125
:1043A0001E701170281C331C38E0002E08D1224AE0
:1043B00001231370224A9169890B8903916138E0C6
:1043C000A178281CFFF7EEFB33E0281CFFF73CFF29
:1043D00030E0281C00211B4A1FE00A780020D30689
:1043E00028D1281CFFF79EFCA2781549154B022402
:1043F0001A600A682A23FF33D05C2043D0544A2035
:10440000FF30145C01231C4314548A69920B9203FD
:104410008A610EE00C4A281C00210123FFF738FEB8
:1044200007E08A78084B1A60054B9A69920B920351
:104430009A61012076BDC0461C280020C92C0020AE
:10444000D42C0020D82D0020CC2C0020F8B54B4BCC
:10445000071C1C78002C00D08FE0494D2868838B06
:1044600019070ED5201C211CFFF7D2F82B6810204D
:104470001A1CFF32917A01439172424A1460082259
:104480009A832B689A8B50071FD504229A833E4B40
:104490001A78002A0AD01A78013AD2B21A701B7818
:1044A000002B03D11A20012100F012FD374B1A789E
:1044B000002A0AD01A78013AD2B21A701B78002B5F
:1044C00003D11920012100F003FD2B68FF331A7A74
:1044D000D10626D510221A725A7940210A432C4956
:1044E0005A710A786023381C1A4202D1FFF722FF62
:1044F00001E0FFF77BFB002806D02B688022FF330A
:10450000997952420A4301E0224B20229A712B688A
:10451000FF331A7A500604D540221A72597A0A4398
:104520005A722968FE230E8C00241E40E1B2002E30
:1045300023D0321C012322411A4216D0221C2868A3
:10454000083252018218D079184203D1D279DA4068
:104550001A4207D0104BA200D058002809D0036897
:104560001B6898470123A3409E430134092CDDD1E9
:1045700003E0381CFFF764FAF4E7F8BDC82C00200C
:10458000D42C0020D82D0020E82A0020D02C002098
:10459000EC2A0020FF500041AC2C002008B5024856
:1045A000FFF754FF08BDC046CB2C0020014A024B48
:1045B0001A60704700500041D42C00200120704741
:1045C00008B50368014A1B6A984708BD1304000038
:1045D000031CFC33D9699A69914203D0DB69C01886
:1045E000007D01E001204042704710B5041C0069C5
:1045F000FEF76CFD221C0023FC329361D3618622FE
:104600009200A4186360A36010BD0000F0B587B0ED
:1046100001930CAB1B78802602930DAB1B78002511
:1046200003930EAB1B78760004930FAB1B78041C2E
:104630000593FA239B008360194B0F1C08330092EB
:1046400045600360291C321C143003F0DAFA231C85
:104650008E22FC3352009D61A018DD61321C291CA2
:1046600003F0CFFA86229200A3185D60009A9D6045
:1046700089239B002761E254019A0A4B201CE254D3
:10468000029A094BE254039A084BE254049A8A2393
:104690009B00E254059A8E239B00E25407B0F0BDC4
:1046A00070DB000025020000260200002702000047
:1046B00030B585B0041C08A8057809A800780095D5
:1046C0000190FF2002900390201CFFF79FFF201C09
:1046D00005B030BDF023081C184030384342584123
:1046E0007047F0231B01194080239B0099420CD096
:1046F000C0239B00994206D080235B00052099428D
:1047000004D0002002E0072000E0062070470F23BD
:104710001940012905D002394B424B410220C01AF1
:1047200000E0002070470000F0B5892385B00391B8
:104730009B00041C1827C05C3B1C4343324E0821DD
:10474000F3185956151C00F0F3FB304B0821E05CC0
:104750003B1C4343F318595600F0EAFB2C4BE25C38
:10476000022A0AD18E239B00E05CFF2805D0474334
:104770000821F719795600F0DBFB8A27BF00E05DBE
:10478000FF281AD0012100F049FBE35D18225A43AB
:10479000B3562049DB0158188B21890060501E490F
:1047A000B6185B188C217268890063500121914012
:1047B0000A1C8D21890062501A6001210A1C039B8A
:1047C0002069FEF7F7FD291C201CFFF78AFF291C32
:1047D000071C201CFFF79BFF291C061C201CFFF751
:1047E00079FF391C0090331C20690122FEF73FFC41
:1047F000074B2069E15C094BE25CFEF754FC206941
:10480000FEF772FC05B0F0BD98D60000250200004E
:104810002702000018440041144400412602000011
:10482000031CFC3358689B68C01A01D50130FF3067
:10483000704710B5041C8E235B00E018FFF7F0FFF3
:104840000028F8D12069FEF759FC10BD08B51430D6
:10485000FFF7E6FF08BDFC30426883689A4204DB3C
:1048600043688068C01AFF3003E082684368D01A4A
:104870000138704708B51D30FF30FFF7ECFF08BD69
:1048800038B5041C0069FEF755FC002805D02069E6
:10489000FEF760FC2069FEF752FC2069FEF73AFC47
:1048A000002820D02069FEF755FC231CFC339A69B0
:1048B000D9690132D2B28A4203D099696118087568
:1048C0009A618A239B00E35CFF2B0CD0201C1430E0
:1048D000FFF7C1FF092806DC8B238D229B00920085
:1048E000E358A2581A602069FEF72FFC00281FD059
:1048F0008E225200A518281CFFF792FF031C206986
:10490000002B13D086229200A31899685A6891420E
:1049100006D09A68A95C9A680132D2B29A6001E026
:1049200001214942C9B2FEF719FC01E0FEF721FC62
:104930002069FEF7F4FB002805D02069FEF7F3FBA1
:104940002069FEF7E3FB38BD70B5041C00690D1C3F
:10495000FEF7FBFB8E225200A61800280ED0301C5A
:10496000FFF75EFF00283DD008E0EFF31083DA0781
:1049700022D41F4B5A68D205D20D0AD1862292004A
:10498000A31858689A680130FF2108409042ECD083
:104990001BE0103AD2B253B2002B08DA0F231A40B0
:1049A000083A144B92089200D218536804E09B080E
:1049B000C033114A9B009B582069FEF7C6FB0028B4
:1049C000DCD0201CFFF75CFFD8E75A6801320A40B0
:1049D00099688A4202D0596875545A602069FEF776
:1049E000C4FB03E02069291CFEF7B8FB012070BD61
:1049F00000ED00E018ED00E000E100E038B5031C38
:104A0000FC33D9699A69041C914207D0DA6982188B
:104A1000157DDA690132D2B2DA6101E001256D4219
:104A20008A239B00E35CFF2B0CD0201C1430FFF783
:104A300012FF0A2806DD8C238D229B009200E3588A
:104A4000A2581A60281C38BDFEE7FEE708B5034BE4
:104A50001B68002B00D0984708BDC046DC2D002005
:104A600038B50F490F4CA14204D100F07DF800F099
:104A700053F80BE00C4D8D42F7D00023CA18E8180C
:104A8000A24204D2006804331060F7E7FEE79042C8
:104A9000EBD0064B064A9342E7D2002204C3F9E763
:104AA0000000002010010020B8DC000010010020F0
:104AB000002E002008B500F02CF8002801D100F0ED
:104AC0001DF808BD014B18607047C046DC2D002062
:104AD000014B18687047C046E02D002070B5041ED9
:104AE00008D0054B1D681E1C00F012F833685B1BD4
:104AF000A342F9D370BDC046E02D002008B5034B9A
:104B00001A6801321A6000F083FA08BDE02D002017
:104B1000704700207047704710B500F0D9F803F0D7
:104B20002DF8FFF7F8FF0120FFF7D8FF084C201CF5
:104B3000FEF7A6FF201CFFF71BF8FDF7F5FBFDF7BE
:104B400063FB044B002BFAD000E000BFF7E7C04640
:104B5000CB2C00200000000008B503F035F808BD9C
:104B600008B503F03BF808BD70B5494A1E215368EB
:104B700002208B430343474953608B690824234336
:104B80008B61454C454B9C829C8A20439882101C2B
:104B9000DA689407FCD5424A012414701478E507BA
:104BA00004D53F4C647864B2002CF7DB0124946098
:104BB000547864B2002CFBDB3A4D394C6560547874
:104BC00064B2002CFBDB8225354CED016580547806
:104BD00064B2002CFBDB02249C84DC68E606FCD576
:104BE000314D2E4CE562DD682C4CEE06FBD5A58CD4
:104BF0002E4E3543A584DD68284CEE06FBD5A58CEA
:104C000002263543A584DC682506FCD5234CE468E0
:104C10006606F8D5DC68E506FCD500249460547877
:104C200064B2002CFBDB224D1D4C656055781C4C9A
:104C30006DB2002DFADB1E6A1E4D35401D621D6AE5
:104C40008026B5431D620323A3601B4B636053782A
:104C50005BB2002BFBDB00230B72184A4B728B728A
:104C6000CB72174BFF211A60164B174A1B6812684C
:104C70005C01D20E214011439A06520F12020B1C06
:104C80001343124A1385436880221343436070BD67
:104C900000400041000400400C06000000080040F5
:104CA000000C004001050100B905FF7D040A000069
:104CB00000070300FFFCFFFF03060100006CDC029D
:104CC00080000020246080002060800000400042BE
:104CD000314BFA21186810B5890000F0B7FB2F4B53
:104CE0000138984224D82E4A2E4B5060186AC021B1
:104CF0000002000A0906014319620024072194609A
:104D00001160196A80220902090A12060A431A620E
:104D1000254BFC211A6A0A431A62196AFC22920185
:104D20000A431A62196AA022D2020A431A6200E0F8
:104D3000FEE7201C0021013400F070F8142CF8D19B
:104D40001A4C63785BB2002BFADB194B6380194B6A
:104D50005A7ED209012AFAD0E422D2009A803F2258
:104D6000DA70597E134AC9090129FAD0C0235B01C0
:104D700000201361907000F023F863785BB2002B81
:104D8000FBDB0D4A094B5A800C4BDA79D209012A18
:104D9000FAD041225A7010BD80000020FFFFFF00B2
:104DA00010E000E000ED00E000040040000C0040D6
:104DB0001E40000000400042214000000048004228
:104DC00000B5144A517E131CC9090129F9D00138D4
:104DD000042813D81969104A0A401A615A780F2119
:104DE0008A4300F029FB030509070300012102E0C3
:104DF000032100E002210A435A700AE01169F023FE
:104E00001B050B43136153780F218B4302210B4386
:104E1000537000BD00400042FFFFFFF010B51824A2
:104E2000021C201C5043274B1818007A40B2013056
:104E300046D0032944D8081C211C00F0FDFA023397
:104E40001121624398569A18C3011F4852681B18D3
:104E500099184031022008700121914059602FE0DB
:104E60006243985618499A185268C3015B189918FA
:104E700040310620087001219140596099611FE07E
:104E800051435A56104859184B68D2011118C81886
:104E90004030062404700120984048600B495218A5
:104EA00050600DE0624398569A18C3010648526854
:104EB0001B18991840310220087001219140996017
:104EC00010BDC04698D60000004400411044004187
:104ED00018235843134AF0B5131808241C570134FB
:104EE0001FD08256104ED2015D6801249019231CF8
:104EF0008668AB401E420BD10E1C771EBE41401986
:104F000034404030A50004780426B4432C43047098
:104F1000002903D105495218536002E0024E92194C
:104F20009361F0BD98D60000004400411044004158
:104F300018224243F8B52D4D0824AA181457031C13
:104F4000621C50D0481C00240C284CD800F074FA85
:104F5000071E1E1E1E1E1E1E1E0A0A0A0A0001240D
:104F6000644240E0092902D1181C002103E00A290B
:104F700004D1181C0221FFF751FF23E000240B2964
:104F800031D1181C0121FFF749FF2CE018225343AF
:104F9000EA185268EB560120141C04405508DB0146
:104FA000002C11D0124C1B195D1930352E780C01D4
:104FB0000F21314021439A18C9B229704032137829
:104FC0001843107000240EE0094E0F279B195D193D
:104FD00030352E789A18BE433143C9B22970403219
:104FE000137818431070201CF8BDC04698D60000F6
:104FF00000440041014B18607047C0468400002007
:10500000024B012252421A607047C04684000020C1
:10501000154A1368581C25D0013B1360002B21D181
:1050200072B6124A124B04329A4207D8BFF34F8F1E
:10503000104A114BDA60BFF34F8F11E00F4B197D0F
:10504000C807FBD5188B2021FF319208520001437D
:105050001983DA610A4A1A801A7DD107FCD5E5E77F
:10506000C046FDE77047C0468400002000200000D5
:10507000030200000400FA0500ED00E000400041DA
:1050800002A5FFFF70B544680E1C0025002C09D056
:105090002368201C5B68311C9847002804DB2D180E
:1050A000E468F3E7281C01E00120404270BD38B5F8
:1050B00044680D1C002C08D02368201C9B68291C08
:1050C0009847002802D1E468F4E7201C38BD38B5C1
:1050D00044680D1C002C07D02368201C291CDB68A9
:1050E0009847E4682D18F5E72C7038BD38B544684A
:1050F0000D1C002C08D02368201C1B68291C984715
:10510000002803D1E468F4E7201C00E0012038BD4A
:10511000064B0122196810B51140054805D102243B
:1051200004700424447041601A6010BDEC2D00200E
:10513000E42D002008B5031C081C191C02F008FD12
:1051400008BD00000B1C011C021C30B519430220D5
:10515000002900D130BD802109068B4216D00D49AF
:1051600004205C180C498C42F4D90C4D5C198C421B
:10517000F0D90B4C590049080320A142EAD9074C49
:105180000020A142E6D150425041E3E7002AE1D09D
:10519000EFE7C0460000F0FFFFFFDF7F0000F07F79
:1051A000FFFF0F0000000000F0B5474680B48AB052
:1051B000041C0D1C00F058F8294A0023D3569046D1
:1051C000061C0F1C01330DD0201C291CFFF7BAFF51
:1051D000002807D0201C291C204B1F4A00F09CF9F6
:1051E000002805D1301C391C0AB004BC9046F0BD23
:1051F000012300931B4B049405950193002308930E
:105200004346029403951C78002C0ED1134B124A8E
:1052100006920793684600F00DF900280FD0089B0E
:10522000002B11D1069E079FDCE70C490A48021C9F
:105230000B1C01F005F906900791022CEAD102F04F
:1052400097FC21230360EAE702F092FC089C0460CB
:10525000E8E7C046C046C04600000000000000006D
:1052600088000020A8DB0000F0B55F4656464D469A
:105270004446F0B46C4E0D1C371C83B0041C021C59
:105280000B1C2F40B74200D1ADE0002900DC8BE0C1
:105290002F1500D194E0654D09038023090B5B03B2
:1052A0007F190B43FE0700D570E07F10C20FB84690
:1052B0005B00002780219B181624420000970020E5
:1052C000890345189D4204DC68185B1B009D6D181E
:1052D0000095D50F5B00013C5B1952004908002C7A
:1052E000EFD180210026090620250196B446894683
:1052F00009E0834246D0D40F5B00013D1B195200E8
:105300004908002D1CD066468C198342F1DD6718D0
:10531000E60FBC46F60782464E452CD01B1AA24229
:1053200080414042019F1B1A121B7F18D40F5B0063
:10533000013D019750461B1952004908002DE2D14A
:10534000134328D101984308009D394E6A109219E1
:10535000ED0702D5802109060B4340460705B91821
:105360001C1C0D1C201C291C03B03CBC90469946FB
:10537000A246AB46F0BDFF0FFF077E427E41B2461C
:105380008244CBE79442C2D9181CB4E7C20F5B0039
:105390009B18400089E7019901312FD0019C01231E
:1053A00023401B195B08CFE76B005B081A43D9D079
:1053B000002700292BD1C10A153F40050029FAD04A
:1053C0008022520311421ED10023490001331142B1
:1053D000FBD001242022E41AD21A3F19041CD44025
:1053E0002143984057E7201C291C01F093FC221C04
:1053F0002B1C00F009FD041C0D1CB3E7009A0023D0
:1054000001320092A0E7202201240023E5E7221CBC
:105410002B1C201C291C01F00DFF021C0B1C01F091
:105420000FF8041C0D1C9DE70000F07F01FCFFFF3E
:105430000000E03F0020704702B47146490849006F
:10544000095C49008E4402BC7047C046002934D034
:105450000123002210B488422CD301242407A14246
:1054600004D2814202D209011B01F8E7E400A14203
:1054700004D2814202D249005B00F8E7884201D39E
:10548000401A1A434C08A04202D3001B5C08224376
:105490008C08A04202D3001B9C082243CC08A042E7
:1054A00002D3001BDC082243002803D01B0901D0D3
:1054B0000909E3E7101C10BC7047002801D0002048
:1054C000C04307B4024802A14018029003BDC04681
:1054D000190000000029F0D003B5FFF7B9FF0EBC9A
:1054E0004243891A1847C0467047C0468446101C7C
:1054F00062468C46191C634600E0C0461FB501F0A9
:105500008BFB002801D40021C8421FBD10B501F05B
:10551000BBFA4042013010BD10B501F07DFB002800
:1055200001DB002010BD012010BDC04610B501F008
:1055300073FB002801DD002010BD012010BDC04616
:1055400010B501F0EBFA002801DC002010BD0120AD
:1055500010BDC04610B501F0E1FA002801DA0020C4
:1055600010BD012010BDC04638B50E4B0C4A041CBE
:105570000D1CFFF7EFFF002804D1201C291C02F0AE
:1055800083F938BD074B064A201C291C01F052FE46
:1055900002F07AF980231B06C018F2E7C046C04625
:1055A000000000000000E041F8B543024400C50FD0
:1055B0004E024800240E2A1C9B09000EC90FB60992
:1055C0008D4256D0221A002A00DC83E000281AD12E
:1055D000002E00D06FE0580704D00F221A40042A92
:1055E00000D00433590137D50134FF2C00D17DE0C0
:1055F0009B015B0AE0B22A1C5B02C405580AD20771
:1056000020431043F8BDFF2CE5D08021C9040E4390
:105610001B2A00DD27E1311C2020D140821A964050
:10562000721E96410E439B1B5801D4D59B019F09C6
:10563000381C02F06FFA421F974094425ADC141B48
:105640001F231B1B3A1C9F40611C3B1CCA405F1E52
:10565000BB4113430024BEE7DB08E0B22A1CFF2C49
:1056600004D1002B79D08021C9030B435B025B0A74
:10567000C2E7211A002941DD002822D0FF2CAAD040
:105680008020C00406431B2900DDEAE0301C2027EF
:10569000C840791A8E40711E8E4106439B195901EC
:1056A00099D50134FF2C57D0704901221A400B4084
:1056B0005B0813438FE7013A002AB4D0FF2CA7D12F
:1056C00089E7002E00D186E701390029E6D0FF2CBA
:1056D000D9D180E7002A1DD1621CD2B2012A4DDD4A
:1056E0009F1B7A0125D5F71A0D1CA1E72A1CFF2064
:1056F000002381E75D4BA41A3B406CE7002946D1AB
:10570000611CC8B201282ADDFF2925D0F3185B08E7
:105710000C1C60E7002C13D0FF2818D08024E40470
:10572000524223431B2A4DDD0123F31A041C0D1C96
:105730007AE7002F00D07BE700220020002395E7C6
:10574000002B3BD0D243002AEFD0FF28EAD1331CF4
:10575000FF240D1C3FE70022FF2000234CE7002C14
:105760005AD1002B77D0002E00D134E79B19580175
:1057700000D430E73D4A012413402CE7002C15D11A
:10578000002B2FD1002ED7D0331C0D1C23E7002C6B
:1057900021D1002B53D0C943002904D0FF284BD07E
:1057A0001B294FDD01239B19041C78E7002B22D114
:1057B000002ED0D0331C0D1CFF240CE7331C041C1E
:1057C0000D1C08E71C1C2025D440AA1A93405A1E21
:1057D00093412343A9E7FF282ED08024E4044942C3
:1057E0002343DDE7002E00D1F5E69A1B500134D5A6
:1057F000F31A0D1CEFE6FF24002E00D1EBE6802209
:10580000DB08D203134204D0F608164201D1331C40
:105810000D1CDB00FF24DEE6002B0DD0FF24002E44
:1058200000D1D8E68022DB08D2031342F1D0F6087B
:105830001642EED1331CECE7331CFF24CBE6331CBD
:10584000041CC8E61C1C2027CC40791A8B40591E2A
:105850008B412343A7E7331CBDE6131E00D0BAE6F5
:105860006AE701261AE70126DDE6C046FFFFFFFBD7
:10587000F0B55F4656464D464446F0B446024500F4
:10588000C00F85B00F1C760A2D0E804641D0FF2D2B
:1058900026D08024240400212643F6007F3D89463B
:1058A0008B46F90F7C027800640A000E00918A464C
:1058B0003CD0FF2834D080231B041C430023E40089
:1058C0007F380193009F4346019A7B4049469C469E
:1058D00011430F2900D971E0764F89007F58BF46E8
:1058E000002E3ED10822022391469B46D9E75A4614
:1058F000341CC24601920199022937D0032900D1F4
:10590000CFE0012900D0ABE053460B400022002637
:1059100032E0002E19D10421012289469346C0E7C6
:10592000221C531E9A4102320192CBE701270197B4
:10593000002CC7D0201C02F0EDF8431F9C407623BA
:105940005B420021181A0191BCE7301C02F0E2F81A
:105950007625431F9E406D4200232D1A99469B4693
:105960009FE70C23032199468B469AE7D4460123EF
:1059700067463B40FF2200267602D205700ADB070D
:105980001043184305B03CBC90469946A246AB462E
:10599000F0BD80260023F603FF22EDE7002200265B
:1059A000EAE78020C00306423BD0044239D1061CFE
:1059B00026437602760A009BFF22DDE7281A039031
:1059C00076016401A64239D3361B1A220123012035
:1059D000311C5B007600002901DBB44201D8361B84
:1059E0000343013A002AF3DC741EA641341C1C4315
:1059F000039A7F32002A27DD630704D00F23234058
:105A0000042B00D00434270103D52B4B039A1C40F0
:105A10008032FE2A0BDD012361460B40FF22002667
:105A2000AAE706437602760A4346FF22A4E7A401CA
:105A300001236746660AD2B23B409DE7039F1B22C3
:105A4000013F03970023C2E77E23039F5B42DB1BDA
:105A50001B2B07DD012361460B40002200268BE74C
:105A6000D446C5E7221CDA40039B9E339C40231C8E
:105A70005C1EA34113435A0704D00F221A40042A84
:105A800000D004335F0105D5012361460B4001229C
:105A9000002671E79E01624601231340760A002228
:105AA0006AE78026F60326437602760A5346FF22EB
:105AB00062E7C046B0DB0000FFFFFFF7F0B55F46CE
:105AC00056464D464446F0B44402460083B00F1C8F
:105AD000640A360EC50F002E41D0FF2E22D080233F
:105AE0001B0400201C43E4007F3E82468046391C94
:105AF0004B007F02C90F7F0A1B0E8B463BD0FF2B4A
:105B000034D0802212041743FF007F3B00215A4605
:105B10006A40019252460A430F2A63D87A4892009B
:105B200082589746002C3FD108220223924698467D
:105B3000DDE70195404602282AD1019A012515404A
:105B4000FF2300246402DB05600AED0718432843A5
:105B500003B03CBC90469946A246AB46F0BD002C33
:105B600027D10420012282469046C0E7391C4A1EF4
:105B700091410231CBE70121002FC8D0381C01F040
:105B8000C9FF431F9F4076235B421B1A0021BEE7DB
:105B9000032800D1AEE001284FD1019842461040C1
:105BA000C5B200230024CDE70C2303209A4680468B
:105BB0009DE7201C01F0AEFF7626431F9C407642F5
:105BC0000023361A9A46984691E780240025E4037C
:105BD000FF23B7E75B463C1C01938846AAE73C1CC1
:105BE0008846A7E7250C24043A0C240C3F04F61839
:105BF0003F0C211C231C794353436F435543FB182F
:105C00000A0C9B18B1469F4202D980225202AD185D
:105C100009041A04090C521894011B0C611E8C41D2
:105C2000920EED181443AD012C43230105D501223A
:105C300063080120144081441C434B467F33002BF2
:105C40002DDD600704D00F222240042A00D0043446
:105C5000220103D52D4B1C404B468033FE2B17DD14
:105C6000019B01251D400024FF236BE78020C0031A
:105C7000044208D0074206D1041C3C436402640A73
:105C80005D46FF235EE704436402640AFF2359E78D
:105C90000198A4010125640ADBB2054052E77E2386
:105CA0005B424A469B1A1B2B05DD019B01251D40CB
:105CB0000024002346E7221CDA404B469E339C40DA
:105CC000231C5C1EA3411343580704D00F221A4023
:105CD000042A00D004335A0105D5019B01251D403B
:105CE000002401232EE701989C010125640A054048
:105CF000002327E78027FF03019B3C436402012523
:105D00001D40640AFF231DE7F0DB0000FFFFFFF7E3
:105D10004302590A4300C20F1B0E00207E2B0DDDEB
:105D20009D2B0CDC802000040143952B0ADC96207F
:105D3000C31AD9404842002A00D1081C7047034BBF
:105D4000D018FBE7963B9940F4E7C046FFFFFF7F82
:105D500070B5041E3CD0C60F00D04442201C01F098
:105D6000D9FE9E23251C1B1A962B0CDC0838844078
:105D70006402640ADBB2321C6402DB05600AD207EB
:105D80001843104370BD992B0ADD0522121A211CFD
:105D9000D1400A1C011C1B318D40691E8D411543E9
:105DA000052801DD421F9540164C2C406A0704D09F
:105DB0000F221540042D00D0043461010CD59F231F
:105DC000181AFF281AD0A401640AC3B2321CD3E700
:105DD000002200230024CFE7E408FF2B04D0640254
:105DE000640ADBB2321CC7E7002C04D08020C00359
:105DF00004436402640A321CFF23BDE7321CFF2304
:105E00000024B9E7FFFFFFFBF8B55F46564644465E
:105E10004D46F0B40C034D00CE0F610A440F2143F0
:105E2000C400180380465800400D8246D80F8446AF
:105E30004046400A530F0343D0006D0D371C834684
:105E40005246664500D19DE0AF1A002F00DC03E109
:105E5000002A38D1184300D0E4E0630709D00F23AB
:105E60002340042B05D0231DA342A44164420919F9
:105E70001C1C080200D478E0CE4B6A1C9A4200D168
:105E800005E1CD4BE4081940480752054902044397
:105E90000B0B520D371C002000211B03201C1C0B78
:105EA0000B0D1B05C54D2343520552081D401543DC
:105EB0006D006D08FF07291C39433CBC904699468C
:105EC000A246AB46F8BDBB488542C6D08020000440
:105ED0000343382F00DDECE01F2F00DD20E1202000
:105EE000C01B1A1C814682405846F8400243944623
:105EF00058464A469040421E9041FB40624602434B
:105F00001F1CA21A9442A4416442C91B091B141C01
:105F10000B02A2D549024F0A002F00D1C4E0381C61
:105F200001F0F8FD021C083A1F2A00DDB7E0282125
:105F3000091A201C9740C84007439440954200DD51
:105F4000A9E0551B691C1F2900DDD8E01F22551B45
:105F50003B1C221CAB40CA40AC40651EAC41134305
:105F6000CF401C43391C002577E74807E4086A0541
:105F7000C908520D371C04438E4B9D4248D009037B
:105F80000B0B88E7AA1A9446002A00DC98E05046DA
:105F9000002853D08748854200D15EE78020000466
:105FA00003436246382A00DDFDE01F2A00DD4BE195
:105FB00020226046101A1A1C82408246914658469A
:105FC0006246D0404A460243904658465246904068
:105FD000421E9041424602436046C3401219A2420B
:105FE000A441644259180919141C080200D434E76A
:105FF000704B01359D4200D124E16F4B6008194080
:10600000012323401C1C0443CB071C43490824E7FD
:106010000B1C234300D1C7E180231B030B431B034D
:106020001B0B38E7013F002F64D15846221A9442D7
:10603000A4416442C91A091B141C69E75846184355
:1060400000D10AE70122524294446046002800D061
:10605000C5E058460219C2E7002F72D1681C4005FE
:10606000400D012800DCDEE05A46A21A9442BF41EE
:10607000C81A7F42C71B380200D488E05A46141B56
:10608000A3459241591A52428F1A664644E7371C7B
:1060900000230024FFE64849AD1A3940DDE6271CFD
:1060A00028388740002449E7201C01F033FD2030C8
:1060B00038E75A461A43531E9A41D2B2002720E7C6
:1060C000002A00D0DDE0681C4205520D012A00DCE8
:1060D0008EE0384DA84200D1B3E05D462A19A242B5
:1060E000A441644259180919CC07520814434908BD
:1060F000051CB2E62F48854200D0EAE6ADE62B1C2F
:106100001F3B3A1CDA40131C20296DD03F22551B3F
:10611000AF403C43601E84411C43002100259CE6A7
:10612000381C20381A1CC240101C202F5ED0402280
:10613000D71BBB405A461A43531E9A4102430027BD
:10614000DFE6002D3CD01B4DAA4500D194E0802510
:106150002D047F422943382F00DDADE01F2F00DDE5
:106160002CE12025ED1B081C261CA840FE40AC405D
:106170000643651EAC413443F9405D462C1BA345E4
:1061800092415B1A5242991A55466646C0E6131C64
:106190003B43141C002B00D0BEE600270022002544
:1061A00000210024E8E65A461A43531E9A41D2B20F
:1061B000002313E7FF070000FFFF7FFFFFFF0F80B3
:1061C0000D1C254358D0FF43002F51D1041BA3457C
:1061D0009241591A5242891A5546664698E696489F
:1061E000854200D0DDE638E6002792E70023A1E7EC
:1061F000081C2043002D00D0C0E0002800D1FBE0A7
:106200005846184300D128E658460219A242A44134
:10621000644259180919141C0A0200D41DE6874B60
:106220000125194019E6081C2043002D39D100280A
:106230006DD15946194300D1BDE0191C5C46664634
:106240000BE6051C2A1CABE7604620381A1CC2402E
:1062500060469146202800D1ABE04022121A9340BC
:106260005A461A43531E9A414B461A430023B5E639
:10627000714DAA4500D06EE7191C5C46554666462E
:10628000EBE5002D1ED10D1C254373D0D543002D09
:106290006DD15C445C45924159185242891855466B
:1062A000A3E6002849D15946194300D196E0191CAC
:1062B0005C466646604DD0E50C43611E8C41E4B2FD
:1062C00000215AE75C4DAA4554D055428022100463
:1062D0000143382D00DD85E01F2D00DD95E02022F3
:1062E000501B0A1C84468240201CE8400243904612
:1062F00062469440601E844142461443E9405C4437
:106300005C459241CB185242991855466DE6584665
:10631000184300D1A1E55846271ABC429241C81A39
:106320005242801A02026AD55846041BA345924184
:10633000591A5242891A66468FE55846184336D094
:106340004807E40804438020C9080003014208D03C
:10635000DD08054205D15946CA085C071443291CCB
:106360006646630FC9001943E400334D75E5324AB0
:106370009245AED1191C5C4655466EE5002837D0D3
:106380005846184313D080254807E408C9082D0350
:1063900004432942E5D0D8082842E2D15D46EA0804
:1063A0005C071443011CDCE70023002473E5224D45
:1063B00053E5002354E700270022F1E63D1C203D71
:1063C0000A1CEA40151C202F31D04026F71BB9408B
:1063D0000C43611E8C412C430021CEE6164A002757
:1063E000151CDDE60C43611E8C41E4B2002186E7FA
:1063F000191C5C46104D30E5191C5C462DE5031C4C
:106400003B43D8D0011C3C1C27E5202040424019CA
:106410000A1CC2409046202D0BD04020451BA940AD
:106420000C43611E8C4145462C43002167E7002147
:10643000CEE70021F4E7C046FF070000FFFF7FFF23
:10644000F0B5564644465F464D46F0B41F1C0B035C
:106450001B0B98464B0087B0041C81465B0DC80F90
:10646000161C9A460090002B51D06A4B9A4531D0A9
:106470008022414652030A43630FD2001A43664BFF
:1064800090460025E20091469A44002402953B0381
:106490001B0B9B46FD0F7B00311C5B0D019560D0F3
:1064A0005C4A934254D08021584649030143720FFD
:1064B000C9001143584A8B469B18F1000020009AEE
:1064C00004436A4003920F2C00D9ADE0534EA40060
:1064D0003459A746404604436ED1002102250824C2
:1064E000884689460295D2E7009C0298C3464946F1
:1064F0000194022864D0032800D1ABE2012800D027
:1065000038E2019A002402400025A14660E043469B
:1065100023434AD04046002800D1C0E101F0FAFAF6
:10652000031E272B00DDB3E128210D1A211C083B97
:106530004246E9409A400D1C1543221C9A40A84649
:106540009146374B00251B1A9A46002402959EE778
:106550005A4616430320002EB1D1B3460021022033
:10656000ADE75A4632431BD05B46002B00D18AE18F
:10657000584601F0CFFA272800DD7DE12822171ABE
:10658000011C321C08395B46FA408B40171C1F4324
:10659000331C8B40BB46191C214B1B1A00208EE775
:1065A0000027BB460021012089E7002001250424A3
:1065B0008046814602956AE703250C24029566E72A
:1065C000019C0394039D01222A400024114DA14601
:1065D000002000212403260B0C0D2405114B34430D
:1065E0002D0523402B435B005B08D207191C48464E
:1065F000114307B03CBC90469946A246AB46F0BD5D
:106600000022802424039146024DE1E70024002566
:10661000A146DDE7FF07000001FCFFFF30DC0000C2
:106620000DFCFFFFFFFF0F805546ED1A0495D8457E
:1066300000D953E100D14EE1049C0025013C4E46B7
:1066400004944746A946584603020C0E1C4309020F
:10665000250C23041B0C0091381C291C0193FEF708
:10666000F5FE019983464143381C8A46291CFEF7F2
:1066700031FF330C090419438A450CD95B460919CB
:10668000013B8C4200D947E18A4500D844E102220F
:106690005242934409195346CB1A181C291C984698
:1066A000FEF7D4FE071C0198291C78438246404619
:1066B000FEF710FF36040B04360C33439A4509D914
:1066C0001B197A1E9C4200D924E19A4500D821E189
:1066D000023F1B195E4632041743380CBB46009E2E
:1066E000009F51463F0C32045B1A5946BA46120CC1
:1066F0000F043F0C904651467A434F434146414375
:1067000056467043CF19160CBE19B14202D98027E4
:106710007F02C019310C12043604120C4018B6184E
:10672000834200D2C4E000D1BEE0191A4846861B5D
:10673000B145BF417F42CF1BA74200D113E1291CC5
:10674000381CFEF783FE019902904143381C8946AC
:10675000291CFEF7BFFE330C0904194389450CD9E7
:10676000029B0919013B8C4200D9FFE0894500D802
:10677000FCE0029F0919023F02974F46CF1B381CCD
:10678000291C0597FEF762FE071C0198291C784317
:1067900081460598FEF79EFE36040904360C0E432A
:1067A000B14509D936197B1EB44200D9E0E0B145A4
:1067B00000D8DDE0023F3619029D4946761A2904C9
:1067C00039430B0457460A0C1B0C404645465843B8
:1067D00055437B437A43EB18070CDB199D4202D9E2
:1067E00080256D0252191D0C00041B04000C521967
:1067F0001B18964235D300D1FCE001231943049EB7
:10680000994FF519002D00DCA1E0480709D00F23AE
:106810000B40042B05D00B1D8B42894149428B4410
:10682000191C5A46D20107D5904B5C46049E80271E
:106830001C40FF00A346F5198D4B9D427ADD039C59
:106840000122224000248B4DA146C1E6802424036E
:10685000474627424CD13C432403240B009A854DE4
:10686000B6E63619481EB4425ED9011C9642C4D120
:10687000009E9E42C1D1C2E7031C283B311C9940B7
:106880008B46002188E6301C01F044F9203072E686
:10689000283B211C994000228846914651E6201C45
:1068A00001F038F920303BE60021B14500D33DE747
:1068B000009F5A46B944B945BF417F423F19FB1872
:1068C000013A9C421ED2984200D97EE000D1B5E048
:1068D000191A93462AE7894500D8ADE64846464648
:1068E00042467708D3074608C0071E438146AAE6FA
:1068F0005846204212D1044324032A1C240B894603
:106900005C4D65E6A342E3D1009F4F45DBD9211AD8
:1069100093460BE7171CDDE69B46BCE63C4324038D
:10692000240B009A534D53E6B24259D800D18AE065
:10693000011C62E75F46C9087B07039E0B437C028C
:106940006D0501229946240B6D0D324040E64A4BFD
:10695000049FDB1B382B10DD039C01222240002406
:106960000025A14634E60121494248E7029304E7A5
:106970001F1C21E7019C039441E71F2B40DC3F488B
:10698000049F0C1C3A1858469140DC40904020432C
:106990000A1C511E8A41011C11435A46DA40131C3D
:1069A000480709D00F220A40042A05D00A1D8A424E
:1069B000894149425B18111C1A0234D5039C0122FB
:1069C000224000240125A14602E6009F02214942FF
:1069D000B9448B44B945894149420919CB18A4E609
:1069E000009D881E6900A942AD416D422C193619DF
:1069F00000913AE7002B00D033E70024009437E7FA
:106A00001F4A049C5D46121BD5402A1C202B1FD018
:106A10001C4E5F46A3199F403B1C19434B1E9941D6
:106A200011430023BCE75A07C9080A43039F914654
:106A30005B0201221C0B3A400025C9E54E45C4D833
:106A40009346002172E6009F9F42C9D3011C0FE7C5
:106A50000023E2E7802424035F463C432403240B05
:106A6000019A8946034DB3E5FF030000FFFFFFFED7
:106A7000FE070000FF07000002FCFFFF1E040000ED
:106A8000E2FBFFFF3E040000F0B55F4656464D4670
:106A90004446F0B40D1C041C8046E80F81461803E0
:106AA0000F03000B3F0B83B084461B48009749003F
:106AB0005E00DF0F490D9246760DBB4681420CD039
:106AC0001548864210D00120B14215D003B03CBC1D
:106AD00090469946A246AB46F0BD009F0120274351
:106AE000F4D10D488642EED1604602430120002ACF
:106AF000ECD10120B142E9D1009B6345E6D1D045FC
:106B0000E4D1D94506D00029E0D11C43201C441E05
:106B1000A041DBE70020D9E7FF070000F0B55F46A2
:106B200056464D464446F0B4CD0FDE0FAC461D032D
:106B30002D0BB146374E0F034C00AB465D0080462F
:106B40003F0B640D92466D0DB44232D0314EB542CA
:106B500035D0002C0ED1384341424141081C002D54
:106B60000BD0002919D1CC452DD0654668420123B0
:106B7000184318E0002DF6D1281C59460A43534209
:106B80005341002806D1002BEDD063465842012323
:106B9000184308E00020002B05D14A4650425041DE
:106BA0004042012318433CBC90469946A246AB465E
:106BB000F0BD3E1C0643C9D002204042F3E75E46CA
:106BC0001643C6D0F8E7AC4207DC0BDA6146484210
:106BD0004841404201231843E5E7664670420123DD
:106BE0001843E0E75F450AD80ED000205F45DAD2AF
:106BF000654668426841404201231843D3E7624634
:106C0000504201231843CEE7D045F8D80020D045A4
:106C1000EED3C8E7FF070000F0B556464D464446A0
:106C20005F46F0B40D1C83B0041C0190E80F814650
:106C300018030F03000B3F0B8446354800974900AB
:106C40005E00DF0F490D9246760DB846814234D082
:106C50002F48864236D0002918D0002E1FD1341C70
:106C600067463A4353425341002C1FD00020002B6B
:106C700005D142465042504140420123184303B0DF
:106C80003CBC90469946A246AB46F0BD00980443F2
:106C900060426041041C002EE2D00028E9D1C145C9
:106CA00015D04F46784201231843E8E7002BF6D071
:106CB0004B46584201231843E1E7009F0220274337
:106CC000DDD1C5E7674602201743D8D1C3E7B142FB
:106CD00004DD4A46504201231843D0E7B14207DBA6
:106CE00000986045E4D80AD0009F00206745C6D2CE
:106CF0004F4678427841404201231843BFE7019A4A
:106D00005245D5D8019A00205245F1D3B7E7C04685
:106D1000FF070000F0B5564644465F464D46F0B4C6
:106D20001F1C0B031B0B9A464B0087B0041C8046AC
:106D30005B0DC80F161C02938146002B68D0694B6F
:106D40000299994232D08022534652031A43D2000C
:106D5000630F1A439246644AE00089188046029104
:106D6000002400253B031B0B9B467800FB0F321CC5
:106D7000400D039300D175E05A4B984269D08022B0
:106D8000594652030A43730FD2001A43564B934697
:106D9000C018F200002303994E4671401C430F2C8B
:106DA00000D9A9E0514EA4003459A74653461C43CC
:106DB00000D087E00025AA46A84608240225D1E78E
:106DC0004946022D6CD0032D00D117E2012D00D0D1
:106DD00058E10D40EDB20024A9460023A046002052
:106DE000002125030A0D1C052D0B1205404B2A43DB
:106DF000134023435B004C465B08E207191C4046E6
:106E0000114307B03CBC90469946A246AB46F0BD44
:106E10005346234350D05346002B00D184E15046C3
:106E200000F078FE031E272B00DD76E128210D1AE5
:106E3000211C083B5246E9409A400D1C1543221C78
:106E40009A40AA4690462B4B00241B1A0293002519
:106E500088E75B461E430323002E9CD1B3460022E5
:106E6000022398E75B46334321D05846002800D1DF
:106E70004EE100F04FFE272800DD42E128210F1AE5
:106E8000021C311C083A5B46F94093400F1C1F431B
:106E9000331C9340BB461A1C164B181A00237AE782
:106EA00001230B4000249946A0460E4B97E700278C
:106EB000BB46002201236EE7002104248A4688464F
:106EC00001254FE70C2403254CE700258024A94623
:106ED0002403A846034B82E7DA46904603991D1C1B
:106EE0006FE7C046FF07000001FCFFFF70DC0000F9
:106EF000FFFF0F800DFCFFFF029F160C3818049057
:106F00004046070C0004000C1204120C031C5343EF
:106F1000041C3D1C7443554398463B1C7343641941
:106F2000A44644460293230C63449D4204D9029D27
:106F3000802464022D1902951D0C039545462C04EE
:106F40001B04240C1C1905945C46230C051C584397
:106F50002404240C8446381C604365435F43814607
:106F6000CC44280C6044BB46814502D980277F026F
:106F7000BB442D04070C2D0C000440195546BC469B
:106F80002F04E3448446280C3D0C2F1C5743B8467D
:106F90002F1C77434243B94647463F0C9144BA46BB
:106FA000D14446434A4502D980225202B6184F4680
:106FB0003A0CB6183A0447463F043F0CB8462F1C1B
:106FC00067435D434443584365190190380C2D18BD
:106FD0004244B846AC4204D9019880235B02C018F1
:106FE0000190039C029F201C6044C0196045A4418D
:106FF00047466442A4462B043C049946240C4C4466
:10700000A046D8448018C246E24490429241574676
:1070100052429146F219E245BF417F424B46BC467F
:10702000D845BF41D4187F4263461F432D0C7F19BA
:10703000B24292414C45AD4152426D421543019ED0
:107040007D19AB19E20D5B02059F134342023A43DF
:107050009A46531E9A41C30D101C184364022043E4
:1070600080465046C0010DD5454601225646049C37
:107070006B082A401A43F30701341A437608049434
:107080009046B246049E634FF319002B61DD4046E3
:1070900040070BD00F2244462240042A06D0424625
:1070A0000432424580414042824490465546ED01BB
:1070B00007D5594B5646049F80201E40C000B2465B
:1070C0003B18564A934200DDEAE644465546E2083C
:1070D0006807104301226C025B050A408046240BBE
:1070E0005B0D91467BE6DA4690461D1C69E68024DE
:1070F0002403574627421CD13C432403240B484B0E
:107100006DE6031C283B311C99408B460022C3E6E8
:10711000301C00F0FFFC2030ADE6283B211C9940DC
:1071200000228A4690468EE6201C00F0F3FC2030B8
:1071300078E65846204207D1044303992403240BE0
:1071400089469046364B4AE63C432403240B344B95
:1071500045E6344B049E9B1B382B06DD01230B4078
:1071600000249946A046002339E61F2B25DC049C09
:107170002D4D46466019524644468640DC408240CA
:107180005746301C2243DF40441EA04102433B1CB3
:10719000540709D00F201040042805D0101D90423C
:1071A000924152429B18021C1D021AD501230B402A
:1071B00000249946A046012311E61C48049C55462C
:1071C000001BC540281C202B16D0194E5746A2196B
:1071D00097403A1C43461A43531E9A4102430023E8
:1071E000D6E758075B02D2081C0B01230B40104363
:1071F000994680460023F2E50022EBE78024240331
:1072000050460123044319402403240B8946044BB0
:10721000E5E5C046FF030000FFFFFFFEFE0700009C
:10722000FF07000002FCFFFF1E040000E2FBFFFF5F
:107230003E040000F8B55F46564644464D46F0B45D
:107240000C034D00CF0F610A440F2143C400180303
:10725000DE0F8046B44646465800760A530F334345
:10726000D600C94A6D0DBA46400DB346904200D1D2
:10727000EBE06246012672409446674500D1A1E0EA
:107280002F1A002F00DC08E100283BD15846184394
:1072900000D0E8E0600709D00F232340042B05D07D
:1072A000231DA342A441644209191C1C0A0200D4F4
:1072B00079E0B54B6A1C9A4200D109E1B34BE4086E
:1072C00019404807044349025205012750460B0B59
:1072D000520D0740002000211B03201C1C0B0B0D2E
:1072E0001B05AB4D2343520552081D4015436D004D
:1072F0006D08FF07291C39433CBC90469946A246BD
:10730000AB46F8BDA0488542C4D0802000040343AA
:10731000382F00DDF0E01F2F00DD24E12020C01B0E
:107320001A1C5E468240FE40324394465A468240D2
:10733000101C421E9041FB40624602431F1CA21AD1
:107340009442A4416442C91B091B141C0A02A1D522
:1073500049024F0A002F00D1C9E0381C00F0DAFBC7
:10736000021C083A1F2A00DDBCE02821231C091A50
:107370009740CB401F439440954200DDAEE0551B43
:10738000691C1F2900DDDDE01F22551B3B1C221C50
:10739000AB40CA40AC40651EAC411343CF401C43D8
:1073A000391C002576E74807E4086A050127564698
:1073B000C908520D37400443734B9D4249D009031D
:1073C0000B0B87E72A1A9446002A00DC9BE0002872
:1073D00055D06D48854200D15CE78020000403430E
:1073E0006046382800DD09E11F2800DD50E16246D3
:1073F0002020801A1E1C8640B1465E46D6404A4672
:1074000032435E4686409046301C421E90414246C2
:1074100002436046C3401219A242A4416442591873
:107420000919141C080200D434E7574B01359D425A
:1074300000D142E1554B60081940012323401C1C38
:107440000443CB071C43490824E71E4300D014E73C
:107450000FE70B1C234300D1CFE180231B030B4319
:107460001B031B0B36E7013F002F66D15E46A21BB4
:107470009442A4416442C91A091B141C66E7584689
:10748000184300D106E701267642B444604600283E
:1074900000D0CAE05E463219BEE7002F7AD1681CE0
:1074A0004005400D012800DCE3E05A46A21A944250
:1074B000BF41C81A7F42C71B3E0200D492E0584623
:1074C000041BA3459241591A52428F1AE24641E7E2
:1074D000534601271F4000240023FBE62B49AD1A29
:1074E0003940D7E6271C28388740002444E7201C71
:1074F00000F010FB203033E75A461A43531E9A41DE
:10750000D2B200271BE7002A00D0E1E0681C460544
:10751000760D012E00DC91E01B4DA84200D1F7E072
:107520005E463219A242A441644259180919CC0797
:10753000520814434908051CACE61348854200D0A4
:10754000E6E6A7E62B1C1F3B3E1CDE40331C202931
:1075500070D03F22551BAF403C43601E84411C430A
:107560000021002596E6381C20381E1CC640301C21
:10757000202F61D04022D71BBB405A461A43531ECE
:107580009A4102430027DAE6FF070000FFFF7FFF72
:10759000FFFF0F80002D38D0B94DA84200D192E0F6
:1075A00080252D047F422943382F00DDAAE01F2FBC
:1075B00000DD2CE12025ED1B0E1CAE40B046261C44
:1075C000FE404246AC401643651EAC413443F94090
:1075D0005A46141BA34592415B1A5242991A051C44
:1075E000E246B3E6131C3B43141C002B00D0B1E66B
:1075F00000270022002500210024DDE65A461A4318
:10760000531E9A41D2B2002305E70D1C25435AD0E0
:10761000FF43002F53D15A46141BA3459241591AD8
:107620005242891A051CE24690E69548854200D0F0
:10763000D6E62FE600278FE700239EE7081C2043AD
:10764000002D00D0C3E0002800D1F6E058461843D2
:1076500000D11FE658460219A242A44164425918BB
:107660000919141C0A0200D414E6864B012519409E
:1076700010E6081C2043002D3AD1002800D089E0F4
:107680005946194300D1BFE0191C5C46E24601E6A9
:10769000604620381A1CC2406646101C202E00D1BD
:1076A000B0E04022921B93405A461A43531E9A411F
:1076B00002430023AFE6724D00272A1C9BE7704D62
:1076C000A84200D070E7191C5C46051CE246E1E5C3
:1076D000002D20D10D1C254375D0D543002D6FD131
:1076E0005C445C459241591852428918051C99E640
:1076F000002835D159461943DDD0191C5C46E246B5
:107700005F4DC7E50C43611E8C41E4B200215FE789
:10771000051C021C6FE75A4DA84254D055428022E6
:1077200016043143382D00DD81E01F2D00DD91E08E
:107730002022561B0A1CB446B240261CEE4032439F
:10774000904662469440661EB44142461443E94066
:107750005C445C459241CB1852429918051C61E685
:10776000584618434CD04807E40804438020C90811
:107770000003014208D0DD08054205D15946CA0878
:107780005C071443291CE246630FC9001943E40057
:107790003B4D7FE55846184300D17BE55E46A71B6D
:1077A000BC429241C81A5242801A06024CD5584631
:1077B000041BA3459241591A5242891AE24669E5CF
:1077C0002F4A9042AED1191C5C46051C62E5002888
:1077D00036D05846184313D080254807E408C90816
:1077E0002D0304432942CFD0D8082842CCD15D468E
:1077F000EA085C071443011CC6E70023002469E57E
:107800001F4D47E500234FE700270022F3E63D1C0C
:10781000203D0E1CEE40351C202F2DD04026F71B9E
:10782000B9400C43611E8C412C430021D0E60C432F
:10783000611E8C41E4B200218AE7191C5C4629E5EF
:10784000191C5C460E4D25E5031C3B43DCD0011C96
:107850003C1C1FE52026764276190A1CF240904611
:10786000202D0BD04026751BA9400C43611E8C4176
:1078700045462C4300216BE70021D2E70021F4E7C5
:10788000FF070000FFFF7FFF70B50B1C124C0903C0
:107890000E0B5900021C490DDD0F0020A14211DD25
:1078A0000E4881420FDC8020400306430C48401AFA
:1078B0001F280BDD0B4A521AD640321C5042002DB5
:1078C00000D1101C70BD084BE818FBE7074BC24005
:1078D000C9188E403243F1E7FE0300001D0400008A
:1078E0003304000013040000FFFFFF7FEDFBFFFFE8
:1078F00010B5041E28D000F00DF9154A121A0A28F6
:1079000015DD0B38844024035205240B520D00234F
:10791000002000212403181C0B0D240B1B052343FE
:107920000C4C12051C4014436400610810BD031C7C
:107930001533211C99400B1C0B21081AC440240349
:107940005205240B520DE3E7002200240023DFE759
:107950001E040000FFFF0F8043001B0E5A1C410253
:10796000D2B270B54C0AC50F012A17DDE022920091
:107970006407090B9818002200231E0D221C3405F1
:107980000C431B4940054008214001434900490878
:10799000ED070B1C2B43101C191C70BD002B15D1BF
:1079A000002C1CD0201C00F0B5F80A281ADC0B2192
:1079B000091A231CCB40191C031C15339C400D4B8A
:1079C0000903181A4005090B400DD4E7002C03D019
:1079D0006407090B0848CEE707480021CBE70020E1
:1079E0000021C8E7011C0B398C40211C0024E6E76C
:1079F000FFFF0F8089030000FF070000F0B54B0078
:107A00000D03420F5B0D6D0A15435A1C5205CC0F36
:107A1000C600520D012A27DD394FDA19FE2A1ADC79
:107A2000002A35DD8001ED00431E98412843760F82
:107A30003043430704D00F230340042B00D004300D
:107A40008021C904014027D00132FF2A1DD08301C3
:107A50005B0AD1B201E0FF2100235802C905400AA8
:107A6000E40708432043F0BD002B06D1354311D174
:107A70000021002043025B0AEFE72E43EBD0802079
:107A8000ED0080042843FF22D3E7FF210023E4E731
:107A900017320DDA05200022C008D1B2FF2AE9D141
:107AA0000028D9D08023DB0303435B025B0AD4E7C1
:107AB0008022144912041543C91A1F290DDC124AE9
:107AC000371C9B18281C9F4098403B1C5A1E934112
:107AD0001843CE4030430022ABE70C4F2A1CFF1A5C
